:04000000FCEF39F0E8
:10737D00018A90010E6F6E00D06DA001D001D0FC7E
:10738D00D700D06F5001C06FFF00D06DA001D001AC
:10739D00D0FCD78A8012008A90000E6F6E00D06DDF
:1073AD00A001D001D0FCD700D06F5001C06FFF00FD
:1073BD00D06DA001D001D0FCD78A80120009C00188
:1073CD00F00AC002F0036A0C6E8E0E046E0C500DA6
:1073DD006E000E056E0D50A5EC3AF001C009F002DD
:1073ED00C00AF003C00BF000D0120000EE60F015E3
:1073FD000EEE6AE806FDE100EE49F0150EEE6AE8C4
:10740D0006FDE17D0EF66E730EF76E000EF86E0939
:10741D0000F5CF5EF00001FFEF3DF00144E846FCC2
:10742D000B0109C26EC2500209C26E00D0C2B20178
:10743D00D001D0FCD700D0C350C4CF03F0046A03F1
:10744D00C004F0036A0310016E0450026E00D012E6
:10745D0000700ED36E800ED26EDF0E9B6E000E800E
:10746D006E000E816E000E826EE60E0F010F013A58
:10747D006F8B8E8A802F0E926EC00E936E1E0E94A1
:10748D006E020EC26E000EC16EB20EC06E400E6D5B
:10749D006E200E6C6E8A88120003AE01D001D017DB
:1074AD00D001C007F002C008F003C009F0071E08A4
:1074BD001E091E072A000E08220922000E072401AC
:1074CD006E000E0820026E800E0920036E00D0069D
:1074DD00AE01D001D017D004C007F005C008F006EA
:1074ED00C009F0071E081E091E072A000E082209F2
:1074FD0022000E0724046E000E0820056E800E0972
:10750D0020066E00D0000E011A000E021A800E0326
:10751D001A000E041A000E051A800E061A045001E8
:10752D005C0550025806500358D8B001D001D00266
:10753D00D0D89003D0D88001D000D012000450D8FC
:10754D00B401D001D008D0015002100310D8A4010D
:10755D00D001D010D000D0000E016E000E026E00D2
:10756D000E036E62D061D006D0042AD89003320289
:10757D0032013200D0000E0114066E000E02140707
:10758D006EFE0E0314086E065007100810D8A401E5
:10759D00D001D0EAD70DD00CD0042A010E0126005F
:1075AD000E0222000E0322D8900332023201320065
:1075BD00D0000E0114066E000E0214076EFF0E03AE
:1075CD0014086E065007100810D8A401D001D0E49D
:1075DD00D707D006D00406D8900136023603360000
:1075ED00D002AE01D001D0F6D704B001D001D00247
:1075FD00D0029E00D0D89004320450086E076A065F
:10760D006A0650011207500212085003120550D895
:10761D00B401D001D002D0038E00D001C001F00220
:10762D00C002F003C003F000D012000F0E2C6E2626
:10763D00C02DF027C02EF028C02FF02C28306E045E
:10764D00D0D8902F322E322D32302EFAD72D5035F4
:10765D006E356601D001D008D0000E266E000E27C3
:10766D006E000E286E70D06FD00F0E2C6E29C02DAF
:10767D00F02AC02EF02BC02FF02C28306E04D0D85D
:10768D00902F322E322D32302EFAD72D50366E36B7
:10769D006601D001D008D0000E266E000E276E00B8
:1076AD000E286E51D050D0000E326E000E336E008B
:1076BD000E346E3650890F355E28C036F02B50369D
:1076CD001A800E3616278EFF0E2616FF0E27160071
:1076DD000E28162A8EFF0E2916FF0E2A16000E2BC7
:1076ED00162C6E180E316E2C50D89032363336342F
:1076FD00362950265C2A5027582B502858D8A001DF
:10770D00D001D007D02950265E2A50275A2B502859
:10771D005A3280D890263627362836312EE5D700B6
:10772D00D032C001F033C002F034C003F035C004D4
:10773D00F036C005F0A5EC3AF001C026F002C027E6
:10774D00F003C028F000D012000F0E0D6E09C00E10
:10775D00F00AC00FF00BC010F00D28116E04D0D838
:10776D009010320F320E32112EFAD70E50176E17AF
:10777D006601D001D00AD0000E096E000E0A6E000F
:10778D000E0B6E000E0C6E77D076D0170E0D6E09A7
:10779D00C00EF00AC00FF00BC010F00D28116E04D2
:1077AD00D0D89010320F320E32112EFAD70E501251
:1077BD006E0A8EFF0E0916FF0E0A16000E0B160925
:1077CD0050136E0A50146E0B50156E166A8E0E17EE
:1077DD005E17AE01D001D01BD01750800A8F0FD885
:1077ED00B001D001D00BD0000E096E000E0A6E0054
:1077FD000E0B6E000E0C6E3FD03ED000D0D8901602
:10780D0032153214321332173EF9D71ED01DD01750
:10781D000E176401D001D012D0000E096E000E0AB1
:10782D006E000E0B6E000E0C6E26D025D007D0D834
:10783D00901336143615361636170600D017660116
:10784D00D001D0F5D701D000D01250D8B401D0015D
:10785D00D009D0161E151E141E136C000E14221501
:10786D0022162200D013C009F014C00AF015C00B67
:10787D00F016C00CF000D012000F0E3D6E37C03E5A
:10788D00F038C03FF039C040F03D28416E04D0D8EB
:10789D009040323F323E32412EFAD73E50426E4238
:1078AD006601D001D008D0000E376E000E386E0084
:1078BD000E396E80D07FD00F0E3D6E3AC03EF03B3C
:1078CD00C03FF03CC040F03D28416E04D0D8904000
:1078DD00323F323E32412EFAD73E50476E47660157
:1078ED00D001D008D0000E376E000E386E000E3964
:1078FD006E61D060D047507B0F422639C047F03CB7
:10790D0050471A800E4716388E3B8EFF0E3A16FFE3
:10791D000E3B16000E3C16000E436E000E446E001C
:10792D000E456E3D6E070E466E3D5000D037A001E0
:10793D00D001D007D03A5043263B5044223C50450D
:10794D002200D0D890393238323732D8903A363B7F
:10795D00363C36462EEBD700D03D6E090E466E3DB9
:10796D005000D037A001D001D007D03A5043263B6C
:10797D005044223C50452200D0D89039323832370D
:10798D0032D890453244324332462EEBD700D043A5
:10799D00C001F044C002F045C003F042C004F047FE
:1079AD00C005F0A5EC3AF001C037F002C038F00385
:1079BD00C039F000D012000F0E1E6E18C01FF01946
:1079CD00C020F01AC021F01E28226E04D0D89021BC
:1079DD003220321F32222EFAD71F50256E0F0E1E67
:1079ED006E1BC01FF01CC020F01DC021F01E2822F0
:1079FD006E04D0D890213220321F32222EFAD71F9A
:107A0D0050246E2550D8B401D001D00FD02450256C
:107A1D006001D001D011D02550000824241E6E190C
:107A2D000E1E5CD8A001D001D007D01BC018F01CD1
:107A3D00C019F01DC01AF0DBD02450D8B401D0010C
:107A4D00D00FD02550246001D001D011D02450008A
:107A5D000825241E6E190E1E5CD8A001D001D0077A
:107A6D00D018C018F019C019F01AC01AF0C0D01EE5
:107A7D006E060E236E1E501AAE01D001D002D02319
:107A8D008E00D01DAE01D001D001D0238C198EFFF8
:107A9D000E1816FF0E1916000E1A161C8EFF0E1B51
:107AAD0016FF0E1C16000E1D162450256001D00168
:107ABD00D023D000D0D8901B361C361D362406247A
:107ACD00502518D8B401D001D010D023062350076B
:107ADD000BD8A401D001D0EED708D007D006D0D84E
:107AED00901A3219321832252A00D02450256201FD
:107AFD00D001D0F5D729D028D02550246001D00150
:107B0D00D023D000D0D890183619361A3625062431
:107B1D00502518D8B401D001D010D023062350071A
:107B2D000BD8A401D001D0EED708D007D006D0D8FD
:107B3D00901D321C321B32242A00D02450256201A4
:107B4D00D001D0F5D701D000D023AE01D001D00C9B
:107B5D00D0FF0E181AFF0E191AFF0E1A1A010E1861
:107B6D0026000E1922000E1A2223AC01D001D00DD1
:107B7D00D0FF0E1B1AFF0E1C1AFF0E1D1A010E1B35
:107B8D0026000E1C22000E1D2200D01E6E000E239C
:107B9D006E1E5018501B2619501C221A501D221DE6
:107BAD00AE01D001D011D0FF0E1B1AFF0E1C1AFF13
:107BBD000E1D1A010E1B26000E1C22000E1D221E6C
:107BCD006E010E236E1E5000D01BC001F01CC002B2
:107BDD00F01DC003F025C004F023C005F0A5EC3A5C
:107BED00F001C018F002C019F003C01AF000D01255
:107BFD00002FEC3AF082B801D001D01DD082B60131
:107C0D00D001D019D0800E506E1E0E516E430E5203
:107C1D006E000E4D6E300E4E6E410E4F6ECD0E003F
:107C2D00010001666F4C0E00010001676F3E0E00F2
:107C3D00010001686F00D082B801D001D01DD08243
:107C4D00A601D001D019D0800E506E1E0E516E437C
:107C5D000E526E000E4D6E100E4E6E410E4F6ECDCD
:107C6D000E00010001666F4C0E00010001676F3EB2
:107C7D000E00010001686F00D082A801D001D01D57
:107C8D00D082B601D001D019D0800E506E1E0E518B
:107C9D006E430E526E000E4D6EE00E4E6E400E4F48
:107CAD006ECD0E00010001666F4C0E0001000167E4
:107CBD006F3E0E00010001686F00D082A801D00157
:107CCD00D01DD082A601D001D019D0800E506E1ECD
:107CDD000E516E430E526E000E4D6EA00E4E6E4046
:107CED000E4F6ECD0E00010001666F4C0E000100AF
:107CFD0001676F3E0E00010001686F00D050C02675
:107D0D00F051C027F052C028F0000E296E900E2AB7
:107D1D006E420E2B6E1CEC3BF026C060F027C0614E
:107D2D00F028C062F0000E3A6E800E3B6E430E3CA2
:107D3D006E890E296E410E2A6E3F0E2B6E1D0E1B87
:107D4D006EFA0E1C6EBF0E1D6E60C018F061C0196C
:107D5D00F062C01AF0E2EC3CF018C026F019C02712
:107D6D00F01AC028F01CEC3BF026C037F027C038C5
:107D7D00F028C039F043EC3CF037C009F038C00AA8
:107D8D00F039C00BF0ABEC3BF009505D6E5DC001FE
:107D9D00F0BFEC39F0830E296E400E2A6E3D0E2B8E
:107DAD006E4DC026F04EC027F04FC028F01CEC3BA6
:107DBD00F026C009F027C00AF028C00BF0ABEC3B51
:107DCD00F009505D6E5DC001F0D2EC39F0000E4946
:107DDD006E000E4A6E000E4B6E000E4C6EE80E4994
:107DED005C030E4A58000E4B58000E4C58D8A0019B
:107DFD00D001D002D029D028D08988040E486EE455
:107E0D000EE82EFED7482EFCD700F08998040E48B8
:107E1D006EE40EE82EFED7482EFCD700F0010E4979
:107E2D0026000E4A22000E4B22000E4C22E80E496F
:107E3D005C030E4A58000E4B58000E4C58D8A0014A
:107E4D00D001D0DAD701D000D0000E026E030E01A2
:107E5D006E14EC3AF001C05BF002C05CF0000E0253
:107E6D006E040E016E14EC3AF001C059F002C05AC6
:107E7D00F0000E296E800E2A6E440E2B6E000E3A07
:107E8D006E580E3B6E420E3C6E5BC009F05CC00A34
:107E9D00F0E5EC39F009C037F00AC038F00BC03905
:107EAD00F043EC3CF037C026F038C027F039C0283D
:107EBD00F01CEC3BF026C018F027C019F028C01AB2
:107ECD00F0B10E1B6E0C0E1C6E430E1D6EE2EC3CE3
:107EDD00F018C056F019C057F01AC058F059C00923
:107EED00F05AC00AF0E5EC39F009C037F00AC03895
:107EFD00F00BC039F0390E3A6E340E3B6E3C0E3C31
:107F0D006E43EC3CF037C053F038C054F039C055D7
:107F1D00F05E04D8A401D001D00AD0486E020E5EE6
:107F2D006E48508B9E8B8A8B9C899E898C48D05E27
:107F3D0050020AD8A401D001D01CD056C001F05770
:107F4D00C002F058C003F050C004F051C005F0520B
:107F5D00C006F053EC3AF0D8A001D001D030D04893
:107F6D006E030E5E6E48508B9A8B9C898E898C2782
:107F7D00D026D05E50030AD8A401D001D020D066FF
:107F8D00C001F067C002F068C003F053C004F054A4
:107F9D00C005F055C006F053EC3AF0D8A001D00161
:107FAD00D00ED0486E000E5E6E48508B9A8B8C8929
:107FBD008E899C8B8E8A9803D002D001D000D00080
:107FCD000E026E010E016E14EC3AF001C071F0025A
:107FDD00C072F0000E026E020E016E14EC3AF0014A
:107FED00C06FF002C070F08A8A8A9A2ED72DD70002
:047FFD00EF00F0FFA2
:020000040030CA
:020001003800C5
:00000001FF
